:100000000C945D000C9485000C9485000C94850084
:100010000C9485000C9485000C9485000C9485004C
:100020000C9485000C9485000C9485000C9485003C
:100030000C9485000C9485000C9485000C9485002C
:100040000C94B9020C9485000C9487020C94610204
:100050000C9485000C9485000C9485000C9485000C
:100060000C9485000C94850000000008000201003B
:100070000003040700000000000000000000000072
:10008000250028002B0000000000240027002A0083
:10009000040404040404040402020202020203032E
:1000A0000303030301020408102040800102040836
:1000B0001020010204081020480411241FBECFEFB5
:1000C000D8E0DEBFCDBF11E0A0E0B1E0EAEAFBE09E
:1000D00002C005900D92A431B107D9F721E0A4E147
:1000E000B1E001C01D92AC3BB207E1F710E0CDE5F5
:1000F000D0E004C02197FE010E94C805CC35D1078D
:10010000C9F70E9403030C94D3050C94000090E0FF
:10011000FC01EC55FF4F2491FC01E057FF4F849107
:10012000882399F090E0880F991FFC01EA57FF4F50
:10013000A591B491FC01E458FF4F859194918FB73C
:10014000F894EC91E22BEC938FBF0895CF92DF925D
:10015000EF92FF920F931F93CF93DF936C017A017D
:100160008B01C0E0D0E0CE15DF0589F0D8016D919C
:100170008D01D601ED91FC910190F081E02DC60139
:100180000995892B11F47E0102C02196ECCFC7019D
:10019000DF91CF911F910F91FF90EF90DF90CF9063
:1001A0000895FC01918D828D981761F0828DDF0199
:1001B000A80FB11D5D968C91928D9F5F9F73928F5A
:1001C00090E008958FEF9FEF0895FC01918D828D4F
:1001D000981731F0828DE80FF11D858D90E008951C
:1001E0008FEF9FEF0895FC01918D228D892F90E074
:1001F000805C9F4F821B91098F73992708958FE12F
:1002000091E00E94F30021E0892B09F420E0822F85
:100210000895FC01848DDF01A80FB11DA35ABF4FC3
:100220002C91848D90E001968F739927848FA689F5
:10023000B7892C93A089B1898C9180648C93938D1C
:10024000848D981306C00288F389E02D80818F7D0C
:1002500080830895EF92FF920F931F93CF93DF93C4
:10026000EC0181E0888F9B8D8C8D981305C0E88907
:10027000F989808185FD24C0F62E0B8D10E00F5F7B
:100280001F4F0F731127E02E8C8DE8120CC00FB694
:1002900007FCFACFE889F989808185FFF5CFCE0187
:1002A0000E940901F1CF8B8DFE01E80FF11DE35A89
:1002B000FF4FF0820B8FEA89FB898081806207C043
:1002C000EE89FF896083E889F98980818064808371
:1002D00081E090E0DF91CF911F910F91FF90EF901F
:1002E0000895CF93DF93EC01888D8823C9F0EA89C4
:1002F000FB89808185FD05C0A889B9898C9186FD1F
:100300000FC00FB607FCF5CF808185FFF2CFA8891B
:10031000B9898C9185FFEDCFCE010E940901E7CF0D
:10032000DF91CF91089580E090E0892B29F00E9421
:10033000FF0081110C940000089590E0FC01E85941
:10034000FF4F3491FC01EC55FF4F2491FC01E05725
:10035000FF4FE491EE2309F43BC0332339F13330EE
:1003600091F038F43130A9F0323001F584B58F7D49
:1003700012C0373091F03830A1F03430B9F48091A8
:1003800080008F7D03C0809180008F7780938000F4
:100390000DC084B58F7784BD09C08091B0008F7780
:1003A00003C08091B0008F7D8093B000F0E0EE0F2D
:1003B000FF1FE458FF4FA591B4918FB7F894EC91CB
:1003C000611103C020952E2301C02E2B2C938FBFCB
:1003D00008953FB7F8948091190190911A01A09166
:1003E0001B01B0911C0126B5A89B05C02F3F19F039
:1003F0000196A11DB11D3FBFBA2FA92F982F8827A5
:10040000820F911DA11DB11DBC01CD0142E0660FFF
:10041000771F881F991F4A95D1F708958F929F9251
:10042000AF92BF920F931F93CF93DF93CDB7DEB7F9
:10043000A1970FB6F894DEBF0FBECDBF19A2423010
:1004400008F44AE08E010F5D1F4F842E912CA12CE1
:10045000B12CA50194010E94A605E62FB901CA019D
:1004600001501109EA3014F4E05D01C0E95CD801E3
:10047000EC93232B242B252B61F70115110571F02B
:10048000F80101900020E9F73197AF01401B510BB3
:10049000B8018FE191E00E94A60002C080E090E0E8
:1004A000A1960FB6F894DEBF0FBECDBFDF91CF91FE
:1004B0001F910F91BF90AF909F908F9008950E94D1
:1004C000CE051F920F920FB60F9211242F933F93D8
:1004D0004F935F936F937F938F939F93AF93BF934C
:1004E000EF93FF938FE191E00E940901FF91EF915B
:1004F000BF91AF919F918F917F916F915F914F913C
:100500003F912F910F900FBE0F901F9018951F9243
:100510000F920FB60F9211242F938F939F93EF9307
:10052000FF93E0912F01F09130018081E09135013E
:10053000F091360182FD12C09081809138018F5F69
:100540008F7320913901821751F0E0913801F0E06A
:10055000E15EFE4F958F8093380101C08081FF914D
:10056000EF919F918F912F910F900FBE0F901F9041
:1005700018951F920F920FB60F9211242F933F934D
:100580008F939F93AF93BF93809115019091160124
:10059000A0911701B09118013091140123E0230FAD
:1005A0002D3720F40196A11DB11D05C026E8230FAB
:1005B0000296A11DB11D2093140180931501909303
:1005C0001601A0931701B093180180911901909121
:1005D0001A01A0911B01B0911C010196A11DB11D32
:1005E0008093190190931A01A0931B01B0931C01F1
:1005F000BF91AF919F918F913F912F910F900FBE1F
:100600000F901F901895789484B5826084BD84B54E
:10061000816084BD85B5826085BD85B5816085BDFD
:1006200080916E00816080936E00109281008091B5
:10063000810082608093810080918100816080933D
:100640008100809180008160809380008091B10062
:1006500084608093B1008091B00081608093B0008D
:1006600080917A00846080937A0080917A00826021
:1006700080937A0080917A00816080937A008091E3
:100680007A00806880937A001092C100E0912F0177
:10069000F091300182E08083E0912B01F0912C01F8
:1006A0001082E0912D01F0912E018FEC8083109249
:1006B0003701E0913301F091340186E08083E091CD
:1006C0003101F0913201808180618083E0913101BC
:1006D000F0913201808188608083E0913101F09156
:1006E0003201808180688083E0913101F091320194
:1006F00080818F7D808382E00E94870083E00E945A
:10070000870084E00E94870085E00E94870086E0E1
:100710000E94870087E00E948700C0E4C0937C00AD
:1007200080917A00806480937A0080917A0086FDBF
:10073000FCCF609178008091790070E0782B072ED3
:10074000000C880B990B0E94AD0423E23BED49EFAE
:100750005EE30E9411050E94750470931E01609370
:100760001D016B01770FEE08FF08F7FE14C0E09142
:100770001F01F09120010190F081E02D6DE28FE1E9
:1007800091E0099566277727CB016C197D098E09C1
:100790009F094AE003C04AE0C701B6010E940E0269
:1007A00042E050E060E171E08FE191E00E94A6003C
:1007B0000E94E9014B015C0184EFC82EDD24D39433
:1007C000E12CF12C0E94E901DC01CB018819990987
:1007D000AA09BB09883E9340A105B10558F021E064
:1007E000C21AD108E108F10888EE880E83E0981E4D
:1007F000A11CB11CC114D104E104F10419F78091CA
:100800001D0190911E018739910574F461E082E029
:100810000E949D0161E083E00E949D0160E084E010
:100820000E949D0160E011C08659910960E0C39764
:10083000A8F482E00E949D0160E083E00E949D0197
:1008400061E084E00E949D0161E085E00E949D01DD
:1008500060E086E00E949D0160E014C082E00E949A
:100860009D0160E083E00E949D0160E084E00E94C1
:100870009D0160E085E00E949D0161E086E00E94AC
:100880009D0161E087E00E949D010E94930146CF97
:10089000EFE1F1E01382128288EE93E0A0E0B0E095
:1008A00084839583A683B78384E091E091838083DA
:1008B00085EC90E09587848784EC90E09787868725
:1008C00080EC90E0918B808B81EC90E0938B828B1D
:1008D00082EC90E0958B848B86EC90E0978B868BF6
:1008E000118E128E138E148E08950E947C046894CB
:1008F000B1110C940B0508950E94F00488F09F57E5
:1009000098F0B92F9927B751B0F0E1F0660F771F33
:10091000881F991F1AF0BA95C9F714C0B13091F029
:100920000E940A05B1E008950C940A05672F782FFC
:100930008827B85F39F0B93FCCF3869577956795EE
:10094000B395D9F73EF490958095709561957F4F5A
:100950008F4F9F4F0895E89409C097FB3EF4909500
:100960008095709561957F4F8F4F9F4F9923A9F088
:10097000F92F96E9BB279395F69587957795679517
:10098000B795F111F8CFFAF4BB0F11F460FF1BC05B
:100990006F5F7F4F8F4F9F4F16C0882311F096E9EE
:1009A00011C0772321F09EE8872F762F05C066239C
:1009B00071F096E8862F70E060E02AF09A95660F55
:1009C000771F881FDAF7880F9695879597F908950E
:1009D00057FD9058440F551F59F05F3F71F04795F0
:1009E000880F97FB991F61F09F3F79F087950895D5
:1009F000121613061406551FF2CF4695F1DF08C0F4
:100A0000161617061806991FF1CF86957105610510
:100A100008940895E894BB2766277727CB0197F9B8
:100A200008950E9424050C9495050E94870538F0CE
:100A30000E948E0520F0952311F00C947E050C94F5
:100A4000840511240C940B050E94E80470F3959F13
:100A5000C1F3950F50E0551F629FF001729FBB27B5
:100A6000F00DB11D639FAA27F00DB11DAA1F649F51
:100A70006627B00DA11D661F829F2227B00DA11D04
:100A8000621F739FB00DA11D621F839FA00D611D8A
:100A9000221F749F3327A00D611D231F849F600DAB
:100AA000211D822F762F6A2F11249F5750409AF0D4
:100AB000F1F088234AF0EE0FFF1FBB1F661F771F60
:100AC000881F91505040A9F79E3F510580F00C942B
:100AD0007E050C940B055F3FE4F3983ED4F38695B6
:100AE00077956795B795F795E7959F5FC1F7FE2BCB
:100AF000880F911D9695879597F9089597F99F67A7
:100B000080E870E060E008959FEF80EC0895002495
:100B10000A941616170618060906089500240A9462
:100B200012161306140605060895092E0394000CE8
:100B300011F4882352F0BB0F40F4BF2B11F460FF77
:100B400004C06F5F7F4F8F4F9F4F0895A1E21A2E11
:100B5000AA1BBB1BFD010DC0AA1FBB1FEE1FFF1F61
:100B6000A217B307E407F50720F0A21BB30BE40BB1
:100B7000F50B661F771F881F991F1A9469F76095F8
:100B80007095809590959B01AC01BD01CF010895B2
:100B9000EE0FFF1F0590F491E02D099481E090E0A5
:0A0BA000F8940C94D305F894FFCFED
:100BAA00000000002A01A600F300D100E50071014F
:040BBA000D0A000020
:00000001FF
